:020000040800F2
:10000000A02500209D0100083B260008BF24000811
:10001000392600088D0A0008A52A00080000000003
:1000200000000000000000000000000005010008C2
:10003000DB0B0008000000004901000865280008EB
:10004000B7010008B7010008B7010008B7010008B0
:10005000B7010008B7010008B7010008B7010008A0
:10006000B7010008B7010008B7010008A50B000898
:10007000B7010008B7010008B7010008B701000880
:10008000B7010008B7010008B7010008B701000870
:10009000B7010008B7010008B7010008B701000860
:1000A000B7010008B7010008B7010008B701000850
:1000B00011290008B7010008B7010008B7010008BE
:1000C000B7010008B7010008B7010008B701000830
:1000D000B7010008B7010008B7010008B701000820
:1000E000B7010008B7010008B7010008DFF810D019
:1000F00000F022FC00480047952E0008AFF3008076
:10010000A0250020224B19680868B0E8F00F80F3A2
:100110000988BFF36F8F4FF0000080F311884EF015
:100120000D0E70470000000006480068006880F36C
:10013000088862B661B6BFF34F8FBFF36F8F00DFE1
:1001400000BF00BF08ED00E0EFF30980BFF36F8F41
:100150000F4B1A6820E9F00F106008B54FF05000FF
:1001600080F31188BFF34F8FBFF36F8F04F04CFA09
:100170004FF0000080F31188BDE808401968086856
:10018000B0E8F00F80F30988BFF36F8F704700BFAE
:100190008C000020EFF30580704700000648804780
:1001A00006480047FEE7FEE7FEE7FEE7FEE7FEE75C
:1001B000FEE7FEE7FEE7FEE7C9280008ED000008BD
:1001C000202A04DB203A21FA02F00021704721FAAC
:1001D00002F3D040C2F12002914008431946704713
:1001E000D2B201E000F8012B491EFBD27047002279
:1001F000F6E710B513460A4604461946FFF7F0FF26
:10020000204610BD421C10F8011B0029FBD1801AAA
:100210007047F0B480EA0102D40F4200B2EB410F04
:1002200002D20246084611464A0042D0C30DDDB252
:10023000C1F3C752AD1A202D35DAC1F3160141F4CE
:10024000000204B15242C5F1200602FA06F12A4129
:100250001044B3EBD05F23D0C4B1012DA0EBC35049
:1002600009DCF0BC4FF0004202EAC352DBB200F5F9
:10027000000000F0D5BA400000F1807000EBC350E0
:10028000A0F1807040EAD170490009E0490841EAD4
:10029000C071A0EBC35000F50000400800EBC35054
:1002A000F0BC00F0B4BA6142012202EB4101001B34
:1002B000F6E7F0BC704781F00041AAE780F000400B
:1002C000A7E780EA010210B502F00043400022D007
:1002D0004A001FD0010E01EB1261C0F35600C2F3B9
:1002E000560240F4000042F40002A0FB0220000489
:1002F0007F39140400D0401C50EA124001D4400061
:10030000491EC2B20C0604EBD010401C4008802AE3
:1003100002D003E0002010BD20F00100002900DA27
:100320000020184310BD30B480EA010202F00045FD
:1003300030F0004221F0004013D090B1C30DD40D35
:10034000C2F31601C0F31600E41A41F4000140F4B0
:1003500000027D34914201D3641C00E04900002C6E
:1003600002DA30BC002070474FF4000000239142B5
:1003700001D3891A034340084FEA4101F7D151B133
:10038000914202D14FF0004105E002D24FF001014D
:1003900001E06FF0010103EBC450284430BC00F0D1
:1003A00036BA420005D0C0F3C7525242914201DC36
:1003B0000020704700EBC15070472DE9FE4F80468A
:1003C00081EA0300C00F0C46009021F0004123F0A9
:1003D0000045B8EB0200A94105D2404621469046AF
:1003E0001C460B46024623F00040104347D0270D21
:1003F000C7F30A00C3F30A510290401A0190402843
:100400006BDAC3F3130040F4801B0098924620B1CE
:100410000023D2EB030A63EB0B0B01985946C0F1A2
:100420004002504600F0D2F906460D465046594665
:10043000019A00F0DAF910EB08006141002487EA24
:10044000115284EAE7731A4340D0009A62B3019ACA
:10045000012A4FEA075215DC001B61EB02014FF045
:10046000004202EA0752CDE90042001C41F580112A
:1004700032462B4600F011FA03B0BDE8F08F40463B
:100480002146F9E7001B61EB0201001C41F58013D6
:1004900000185B412018A2F5001747EB030140EA62
:1004A000D570B6196D4111E06D084FEA360645EA80
:1004B000C0754FEA0752001B61EB0201001C41F5B9
:1004C000801149084FEA30000019514132462B464D
:1004D00003B0BDE8F04F00F0D1B900980122400010
:1004E0000023D0EB020263EBE073009821464FEA51
:1004F000E074B8EB000061EB0401E9E783F000432E
:100500005BE781F0004158E72DE9FE4F81EA0304E3
:1005100004F0004421F0004100944FF0000B23F060
:10052000004350EA01045ED052EA03045BD0C3F3F7
:100530000A54C1F30A552C44A4F2F3340194A0FBED
:100540000254C1F3130141F48011C3F3130343F4C4
:10055000801301FB024400FB034E840A970A44EA1D
:10056000815447EA8357A4FB076802958D0A05FB6F
:1005700007854FEA932C04FB0C542705029D4FEA94
:10058000065847EA1637B5EB08056EEB070C870EE1
:10059000920E47EA811742EA8312A7FB0201B6EBEB
:1005A0000B0164EB00042B0D43EA0C335E1844EBA3
:1005B0001C50DA465146E7FB0201C5F313044FEA2B
:1005C0000B3343EA14534FEA0432019C43EA060317
:1005D000A4F10C040294009CCDE900B400F05DF994
:1005E00003B0BDE8F08F00200146F9E72DE9F04D9A
:1005F00081EA030404F0004B21F0004514464FF05B
:10060000000A23F0004150EA050220D054EA01021A
:100610001DD0C5F30A570246C5F31303C1F31300F7
:10062000C1F30A5640F4801543F48013A7EB060883
:10063000101BD64608F2FD3873EB050002D308F113
:10064000010801E092185B41B8F1000F03DA0020C5
:100650000146BDE8F08D00204FF480110646844627
:100660000EE0171B73EB050705D3121B63EB0503A5
:1006700006434CEA010C49084FEA300092185B41EE
:1006800050EA0107EDD152EA030012D082EA0400D9
:1006900083EA0501084305D0101BAB4106D20122B5
:1006A000002306E000224FF0004302E06FF0010259
:1006B00053101AEB06004CEB085110EB0A0041EB0B
:1006C0000B01BDE8F04D00F0D9B8C10F80EAE07031
:1006D0000844CA079623002100F0A2B896230022FE
:1006E000114600F09DB80EB5C10F80EAE0700844D5
:1006F000CA07002140F233438DE80E000A460B463C
:1007000000F0CBF803B000BD0EB540F233410291CA
:100710000021CDE900110A460B4600F0BEF803B0F7
:1007200000BD20F00040C10DC0F3160040F40000F1
:100730007F2901DA00207047962903DCC1F1960178
:10074000C8407047963988407047C1F30A5210B5C7
:10075000C1F3130140F2FF3341F480119A4201DAF0
:10076000002010BD40F233439A42A2F2334203DC30
:100770005242FFF725FD10BD904010BD00F0004231
:1007800030F000400AD0C10D01F56071C0F31600D1
:1007900042EA0151C2084007114370470020014658
:1007A00070470000002801DBC0F10040002901DB98
:1007B000C1F1004181427047002801DBC0F10040D7
:1007C000002901DBC1F1004188427047202A04DB87
:1007D000203A00FA02F1002070479140C2F1200354
:1007E00020FA03F3194390407047202A06DBCB1709
:1007F000203A41FA02F043EAE07306E041FA02F3DC
:10080000D040C2F1200291400843194670470029A8
:10081000A8BF7047401C490008BF20F00100704786
:1008200010B4B0FA80FC00FA0CF050EA010404BFE6
:1008300010BC704749B1CCF1200421FA04F411FA3C
:100840000CF118BF012121430843A3EB0C01CB1D80
:100850004FEA00614FEA102042BF002010BC7047F1
:1008600000EBC35010440029A4BF10BC7047401CCB
:10087000490008BF20F0010010BC704710B5141EDD
:1008800073F1000408DA401C41F1000192185B4149
:100890001A4301D120F0010010BD2DE9F04D924620
:1008A0009B4611B1B1FA81F202E0B0FA80F2203237
:1008B0009046FFF78BFF04460F4640EA0A0041EAE4
:1008C0000B0153465A46084313D0114653EA010020
:1008D00019D0C8F140025046FFF772FC05460E469B
:1008E000504659464246FFF771FF084305D00120A4
:1008F00004E020463946BDE8F08D0020054346EA75
:10090000E0762C4337430A986305E40AA0EB08001D
:100910000022FD0A44EA47540A3002D5002001466D
:10092000E9E7010510196941DDE908450019694148
:10093000BDE8F04DA2E70000064C074D06E0E06878
:1009400040F0010394E8070098471034AC42F6D316
:10095000FFF7D0FBC84A0008E84A000870B5044613
:1009600000688168C943C9071CD1816821F0010171
:10097000816000F027FF05460FE000BF00F022FF76
:10098000401B022809D9A06A40F01000A062E06A6A
:1009900040F00100E062012070BD20688068C04323
:1009A000C007EBD0002070BD10B50146406A826AD6
:1009B00012F0500F05D0006A026BBDE810400846E7
:1009C0001047816A41F40071816201688968C1F34E
:1009D000424107290CD1017B51B9816A21F4807110
:1009E0008162816AC90403D4816A41F00101816294
:1009F00000F002FA10BD10B5406A816A41F0400172
:100A00008162C16A41F00401C16200F0F7F910BDD2
:100A100010B5406A00F0F1F910BD0000F8B50026ED
:100A20000446009600688168C943C90728D08168D8
:100A300041F001018160134813490068B0FBF1F0F7
:100A400000E0401E00900028FBD100F0BBFE0546F0
:100A500011E000BF00F0B6FE401B02280BD9A06ACF
:100A600040F01000A062E06A40F00100E06284F80B
:100A700024600120F8BD20688068C043C007E9D128
:100A80000020F8BDEC00002040420F00FEE700000F
:100A90002DE9F04385B0002430480094019402947D
:100AA0000394816941F004018161816901F00401CD
:100AB0000491816941F010018161816901F01001A7
:100AC0000491816941F0080181618069DFF89080BB
:100AD00000F00800049000227121404600F06DFEF5
:100AE000DFF880904FF4C04700223946484600F0B6
:100AF00064FE712001250226CDE90005CDE90246FC
:100B00006946404600F064FD00970396CDE9015424
:100B10006946484600F05CFD01221021404600F085
:100B20004CFE0022A903484600F047FE0122402166
:100B3000404600F042FE01222021404600F03DFEEA
:100B400001225103484600F038FE002201214046B0
:100B500000F033FE05B0BDE8F08300000010024055
:100B600000100140000C01401CB500240C49009409
:100B70000A4801940860084600F0D9FA08B100F06C
:100B800032F80094002269460548019400F0A8FA62
:100B9000002801D000F027F81CBD000000740040C0
:100BA0009C020020014800F03FBB000040020020F2
:100BB00030B590F840500124AC40C56B6C600468BF
:100BC00063604368102B036803D099600068C260BB
:100BD00030BD9A600068C16030BD704700E0401EC3
:100BE0000028FCD17047704706490020C8610648BC
:100BF000016941F004010161016941F040010161B5
:100C000070470000F800002000200240064A002142
:100C1000D16106490A6942F002020A614861086925
:100C200040F0400008617047F800002000200240BA
:100C3000044B0022DA61044A136943F00103136193
:100C400001807047F8000020002002401448002274
:100C5000C168CB06134904D5CA6942F00202CA61D1
:100C60001022C3685B0705D5CB6943F00103CB6154
:100C700042F00402C369DB0707D0CB6943F00403E9
:100C8000CB61C16921F00101C161A2F58071013917
:100C900001D0C2607047C16921F00101C161704794
:100CA00000200240F800002070B5054600F08AFDE3
:100CB0000646114C09E0681C07D025B100F082FD02
:100CC000801BA84201D9032070BDE068C007F2D1A3
:100CD000E068800601D52020E060E068C00605D409
:100CE000E069C00702D1E068400703D5FFF7AEFF17
:100CF000012070BD002070BD00200240F8B5002426
:100D0000009490F824202546012A12D0012280F870
:100D100024204A681F23072A0DD20668776B521ECB
:100D200002EB820293409F430B6893401F4377631B
:100D300019E00220F8BD06680D2A0AD2376BD21FCF
:100D400002EB820293409F430B6893401F4337633B
:100D500009E0F76A0D3A02EB820293409F430B6869
:100D600093401F43F7620A68072306680A2A0AD3DA
:100D7000F7680A3A02EB420293409F438B68934024
:100D80001F43F76008E0376902EB420293409F433C
:100D90008B6893401F4337610A68102A01D0112ADB
:100DA00020D1124B02689A4217D193681B0219D4C2
:100DB000936843F4000393600968102912D10C4929
:100DC0000C4A0968B1FBF2F101EB8101490000E036
:100DD000491E00910029FBD104E0816A41F0200105
:100DE0008162012480F824502046F8BD002401408F
:100DF000EC00002040420F00704770477047000031
:100E00002DE9F0414FF0000704003D467ED0A06A76
:100E1000002628B9E66284F82460204600F07EF8B7
:100E20002046FFF79BFDA16AC90600D420B1A06A45
:100E300040F01000A06269E0A16A21F4885141F0FD
:100E40000201A1626268E169237B0A4347EA430128
:100E50000A43A1684FF48077B94209D0012907D02D
:100E60005FF0000194F814C0BCF1010F02D00AE059
:100E70003946F7E7F3B1A36A43F02003A362E36ABC
:100E800043F00103E3622368D3F804C02CF4694CF7
:100E90004CEA010CC3F804C021688B68DFF870C00D
:100EA00003EA0C0313438B60A168B9420BD00129FC
:100EB00009D00CE0DFF85CC0A3690CEB43330B43B3
:100EC00043F40061DFE7218A0D05A5F5801521684F
:100ED000CB6A23F470032B43CB62216889680E4BE5
:100EE0001940914208D1E662A16A21F0020141F065
:100EF0000101A162BDE8F081A06A20F0020040F08B
:100F00001000A062E06A40F00100E0620120F1E719
:100F1000FDF7E1FF00E0FFFFFE0E1FFF2DE9F041AE
:100F200086B04FF000080546CDF80080CDF804806B
:100F3000CDF80880CDF80C8000682049884239D16E
:100F40001F4CA06940F40070A061A06900F400701B
:100F50000490A06940F00400A061A0690E2600F092
:100F600004000327049069461648CDE9006700F0A5
:100F70002FFBA06940F01000A061A069694600F055
:100F8000100004901048CDE9006700F021FB104CE0
:100F90000E488021C4E90008C4E90281811521615D
:100FA000011561612021C4E90618204600F0E6F928
:100FB0002C62656206B0BDE8F081000000240140AB
:100FC00000100240000801400010014008000240EB
:100FD000400200202DE9F047894604463B4900685D
:100FE0003B4F0E1D9046884201D0B84207D1306871
:100FF00010F4702F03D001252846BDE8F08794F83F
:10100000240001280CD0012084F824002046FFF79A
:1010100005FD05004FF0000004D084F82400EBE744
:101020000220EAE7A16A40F60162914341F480712F
:10103000A1622168B94218D1326812F4702F14D01D
:10104000A16A41F48011A1623168490505D5A16A00
:1010500021F4005141F48051A162A16AC9040AD56A
:10106000E16A21F00601E16206E0A26A22F4801240
:10107000A2624968E9E7E06284F82400216A154821
:101080008862216A1448C862216A1448086321688A
:101090006FF0020008602068816841F4807181600F
:1010A000216843464A464C31206A00F095F9206891
:1010B0008168C1F342410729816803D041F480115E
:1010C000816099E741F4A001FAE7000000240140A3
:1010D00000280140A9090008110A0008F7090008C2
:1010E00070B54379012B20D001254571022303718E
:1010F0000668346802F0100340F6FE729A4094438A
:10110000D1E900210A439A40224332600268146800
:10111000C02199408C431460026813688B431360AC
:10112000057100214171084670BD022070BD70B587
:10113000040003D02079002510B105E0012070BD26
:101140006571204600F008F8022020712561012019
:101150002071002070BD000000B585B00021009115
:1011600001910291039100680E49884218D10E48FE
:10117000C16941F00051C161C16901F000510491A0
:10118000816941F0040181618069694600F00400D1
:1011900004901020009003200190044800F018FAF9
:1011A00005B000BD0074004000100240000801407E
:1011B00018B5046800940068104421B11430009000
:1011C0000360002018BD0830F9E770B54279012AA4
:1011D0001ED001224271022303710468266801F0C7
:1011E000100302FA03F52E4326600029016811D08E
:1011F0000C6804F470153C249C40A54203D14B6854
:1012000043F002034B60027100214171084670BD3A
:10121000022070BD0B68C3F383030F2BF3D14B681F
:1012200043F00103EEE700002DE9F05FC16B0C68AD
:1012300001680B68D0F840C0042202FA0CF2494D54
:10124000DFF824A1494E4A4FDFF828B1DFF828E142
:1012500022422CD05A072AD50A68920603D40A687B
:1012600022F004020A600168A94201D1042219E0B7
:10127000514501D1402215E0B14202D14FF48062C4
:1012800010E0B94202D14FF480420BE0594502D13F
:101290004FF4802206E0714502D14FF4800201E054
:1012A0004FF080622F4908394A60C16A3BE04FF035
:1012B000020808FA0CF818EA040F4FF000094FF082
:1012C000010235D05FEA837832D50B689B0605D4DE
:1012D0000B6823F00A030B6080F821200168A94203
:1012E00001D1022219E0514501D1202215E0B1427D
:1012F00002D14FF4007210E0B94202D14FF4005213
:101300000BE0594502D14FF4003206E0714502D19D
:101310004FF4001201E04FF00072124908394A60A0
:1013200080F82090816A00291AD0BDE8F05F084754
:10133000082505FA0CF5254212D01B0710D50B68BD
:1013400023F00E030B6090F84010C36B02FA01F11A
:101350005960826380F8212080F82090016BE2E7D9
:10136000BDE8F09F080002401C000240300002402F
:1013700044000240580002406C00024030B528B3DF
:1013800008C8134914221944B1FBF2F18900C16362
:1013900010498163022141771A6843F6F0718A434C
:1013A000D0E900142143D0E902452C4321430469CC
:1013B0002143446921438469214311431960002179
:1013C0004163012242770177084630BD012030BDDC
:1013D000F8FFFDBF0000024070B5044690F8200001
:1013E000002501280CD0012084F8200094F8216009
:1013F0000020012E06D084F820000225284670BD6A
:10140000022070BD022684F82160A063206806686F
:1014100026F0010606602046FFF7CAFBE06A0028B6
:101420002068016802D041F00E0106E021F00401BD
:1014300001602068016841F00A01016020680168CC
:1014400041F001010160D9E770B5044600F0BAF936
:101450000546601C02D004480078044400F0B2F94C
:10146000401BA042FAD370BD000000202DE9F047D8
:10147000054626480F460126017E01290FD001218D
:10148000814601762868DFF888804CF250340228C3
:1014900008D0A2462046FFF707FCA8B131E00220A1
:1014A000BDE8F0872046FFF7FFFB08BB0120FFF7F0
:1014B0009BFB2046FFF7F8FBD8F81010064621F0FA
:1014C0000401C8F810101CE04FF0FF303860AC6821
:1014D00011E02046FFF79AFB5046FFF7E5FBD8F8EE
:1014E0001010060021F00201C8F8101001D03C6075
:1014F00007E004F58064D5E9020100EB8120A042F9
:10150000E7D8002189F818103046C9E7F800002014
:10151000002002400348016941F080010161002080
:1015200070470000002002402DE9F05F07461C488C
:1015300088460024017E15461E46012909D0012156
:10154000814601764CF2503A5046FFF7ADFB18B198
:1015500022E00220BDE8F09F012F02D0022F00D030
:101560000427D346DFF83CA0220128463146FEF787
:1015700027FE81B208EB4400FFF75AFB5846FFF7FD
:1015800093FBDAF8102022F00102CAF8102018B9F3
:10159000641CE4B2BC42E7D3002289F81820D9E7E2
:1015A000F800002000200240064900200A691206C7
:1015B00007D5054A4A60054A4A600969090600D507
:1015C000012070470020024023016745AB89EFCD21
:1015D0002DE9F84FDFF8B891002409F1040A0AF167
:1015E000040B23460F270BF1040EC9E00125A5408B
:1015F0002A40AA427DD1674ED1F804C0ACEB060860
:10160000B44532D014DCBCF1030F3AD009DCBCF194
:10161000000F2AD0BCF1010F1CD0BCF1020F31D158
:101620001DE0BCF1110F17D0BCF1120F2AD119E047
:10163000B8F5881F19D006DCB8F5803F15D0B8F58D
:10164000801F1FD111E0B8F5001F0ED0B8F5041FA0
:1016500018D10AE0CB6815E0CB681B1D12E0CB68FF
:1016600008330FE0CB680C330CE08B682BB1012BF7
:101670004FF0080303D0456104E0042302E0056154
:1016800000E00023FF2A01D8064601E000F104062D
:101690004FEA840501D9A5F12005D6F8008007FAA4
:1016A00005FC28EA0C0803FA05F548EA0508C6F81F
:1016B00000804D68ED0062D5374DAE6946F00106F9
:1016C000AE61AD6924F0030605F001050095334DC8
:1016D00006EB050CDCF80850A607360F07FA06F8EB
:1016E00025EA0805DFF8B880404503D14FF000082F
:1016F00017E044E0DFF8AC80404502D14FF001082C
:101700000FE0DFF8A480404502D14FF0020808E066
:10171000DFF89880404502D14FF0030801E04FF018
:10172000040808FA06F848EA0508CCF808804D686D
:10173000D9F80060ED034D4601D5164300E096430D
:101740002E604D68DAF80060AD03554601D51643AA
:1017500000E096432E604D68DBF80060ED025D46C8
:1017600001D5164300E096432E604D68DEF8006018
:10177000AD02754601D5164300E096432E60641C09
:101780000D682A46E5407FF431AFBDE8F88F0000D0
:101790000004014000001110001002400000014050
:1017A00000080140000C01400010014000140140FD
:1017B0008068084000D0012070470AB1016170477D
:1017C0000904FBE701488068704700000000002022
:1017D000024881680278114481607047000000204F
:1017E000074810B5016841F010010160032000F0C6
:1017F00095F80F2000F006F800F044F8002010BD26
:101800000020024000B5014687B000221C2000F0F5
:1018100065F81C2000F054F81748C16941F0010137
:10182000C161C06906A900F001000590684600F09A
:101830001DF90398C0B100F039F940000F494FF08D
:101840008042B0FBF1F10E48491E0260416040F257
:10185000E7320021C0E903218160816100F044FC8E
:1018600028B1012007B000BD00F020F9E6E70448E8
:1018700000F096FCF6E700000010024040420F0026
:10188000180100200C4808B5816941F0010181610F
:10189000816901F001010091C16941F08051C1618C
:1018A000C06900F0805000900448416821F0E06178
:1018B00041F00071416008BD00100240000001408D
:1018C000002809DB00F01F0201219140400980003F
:1018D00000F1E020C0F8001170470000F0B40E4B9A
:1018E0001B680C46C3F30223C3F10705042D00D97E
:1018F0000425191D072901D2002300E0DB1E012663
:1019000006FA05F1491E214099409E40761E164078
:101910003143F0BC01F0C7B80CED00E0064900F01F
:10192000070208684FF6FF03184040EA0220034A06
:1019300010430860704700000CED00E00000FA055D
:101940002DE9F0470F46050061D0434E306800F0A6
:101950000700B84209D2306820F0070038433060F1
:10196000306800F00700B84251D128683B4C81072D
:1019700012D5400703D5606840F4E06060602878C5
:10198000000703D5606840F4605060606068A96833
:1019900020F0F000084360602878C00728D068680D
:1019A000012810D02168022810D0890700292EDADA
:1019B000616821F0030101436160FFF703FF804686
:1019C00041F288390DE021688903EFE78901EDE7ED
:1019D000FFF7F8FEA0EB0801494502D90320BDE856
:1019E000F0876068696800F00C00B0EB810FEFD100
:1019F000306800F00700B8420BD9306820F00700CB
:101A000038433060306800F00700B84201D0012050
:101A1000E5E72878400705D56068E96820F4E060CC
:101A2000084360602878000706D56068296920F4BB
:101A3000605040EAC100606000F058F86168084AF0
:101A4000C1F30311515CC8400649086006480068AC
:101A5000FFF7D8FE0020C2E700200240001002403D
:101A6000B04A0008EC000020040000200F220260B1
:101A70000C4A536803F003034360536803F0F00318
:101A80008360536803F4E063C36052684FF4E0631B
:101A900003EAD20202610448006800F0070008600F
:101AA0007047000000100240002002400448054931
:101AB00000684968044AC1F30221515CC84070477C
:101AC000EC00002000100240C04A0008044805490C
:101AD00000684968044AC1F3C221515CC84070479C
:101AE000EC00002000100240C04A000812A185B09E
:101AF0000FC98DE80F0014A0144A006804905168C3
:101B0000134801F00C03042B10D0082B0ED1C1F3A5
:101B10008343C9031DF803000AD5516804AAC1F321
:101B20004041515C0A4A5043B0FBF1F005B07047A8
:101B300008494843FAE700000203040506070809BC
:101B40000A0B0C0D0E0F10100102000000100240D5
:101B500000127A0000093D002DE9F84F040070D012
:101B60002078C04DC00749D06868C0F381000128C3
:101B700007D06868C0F38100022809D16868C003F3
:101B800006D52868800339D560680028E7D035E09D
:101B90006068B0F5803F0BD010B1B0F5A02F11D028
:101BA000286820F480302860286820F4802002E033
:101BB000286840F480302860606890B1FFF702FE2A
:101BC00006460AE0286840F480202860F0E700BF5D
:101BD000FFF7F8FD801B642873D828688003F7D5C9
:101BE0000CE0FFF7EFFD064605E000BFFFF7EAFD5A
:101BF000801B6428F0D828688003F7D420789A4E98
:101C000080074FF001094FF0000839D5686810F0DF
:101C10000C0F07D06868C0F38100022809D16868FA
:101C2000C00306D42868800714D52069012808D18C
:101C300010E02069B0B1C6F80090FFF7C3FD074679
:101C400005E00AE1FFF7BEFDC01B0228C4D82868E2
:101C50008007F7D52868616920F0F80040EAC100E4
:101C600028600DE0C6F80080FFF7ACFD074604E0F1
:101C7000FFF7A8FDC01B022823D828688007F7D4E7
:101C8000207800072CD57948A169D9B1C0F8009017
:101C9000FFF798FD074604E0FFF794FDC01B0228FC
:101CA0000FD8686A8007F7D571484FF4FA51006879
:101CB000B0FBF1F0009000BF0098411E0091FAD2F5
:101CC0000EE080E0C0F80080FFF77CFD074604E0EE
:101CD000FFF778FDC01B022875D8686A8007F7D423
:101CE0002078400760D5E8690027C00008D4E8697B
:101CF00040F08050E861E869012700F080500090D2
:101D00005C480168C90513D40168834641F48071B9
:101D10000160FFF757FD824606E000BFFFF752FD66
:101D2000A0EB0A0064284ED8DBF80000C005F5D50A
:101D3000E06801280AD008B1052813D0286A20F0ED
:101D400001002862286A20F0040002E0286A40F0BE
:101D500001002862E06841F2883B98B1FFF732FD4C
:101D600082460BE0286A40F004002862EEE700BFDC
:101D7000FFF728FDA0EB0A0159455AD8286A8007C9
:101D8000F6D50CE0FFF71EFD824605E0FFF71AFDD1
:101D9000A0EB0A0159454CD8286A8007F6D41FB138
:101DA000E86920F08050E861E06988B36968C1F3B0
:101DB0008101022944D00228C6F8608004D0FFF7D0
:101DC00001FD044638E034E0FFF7FCFC074604E080
:101DD000FFF7F8FCC01B02282BD828688001F7D435
:101DE000206AB0F5803F05D16868A16820F4003012
:101DF00008436860D4E908010843696821F4741154
:101E000008436860C6F86090FFF7DCFC044606E013
:101E100025E000BFFFF7D6FC001B022809D8286880
:101E20008001F7D51BE000BFFFF7CCFC001B0228A8
:101E300002D90320BDE8F88F28688001F4D40EE0B1
:101E40000128F7D06868226A00F48031914204D1F9
:101E5000616A00F47010884201D00120EAE7002096
:101E6000E8E70000001002400000424280044242C5
:101E7000EC0000200070004070B5040004D094F81D
:101E80005100002510B106E0012070BD84F85050CB
:101E9000204600F035F8022084F8510020680168DF
:101EA00021F040010160D4E901010843D4E90312A3
:101EB0001143084361690843218B01F40071084311
:101EC000E1690843216A0843A16A08432168086060
:101ED000A069042101EA104021684860A06AB0F5B9
:101EE000005F02D12168E06A08612068C16921F4BD
:101EF0000061C1616565012084F85100002070BD5A
:101F000000B585B000210091019102910391006814
:101F10000F4988421AD10F48816941F4805181618B
:101F2000816901F480510491816941F0040181616A
:101F30008069694600F004000490A020009002200F
:101F40000190032003900448FFF742FB05B000BD59
:101F50000030014000100240000801402DE9F84F18
:101F6000044690F8500000271D4616468846012872
:101F70000DD04FF0010B84F850B0FFF723FC8146E1
:101F800094F85100BA46012804D00227A4E00220A8
:101F9000BDE8F88FB8F1000F74D0002E72D0032086
:101FA00084F85100C4F854A0C4F83080A686E686B0
:101FB000C4F838A0A4F83CA0A4F83EA0C4F844A0FB
:101FC000C4F840A0A068B0F5004F04D120680168B3
:101FD00041F480410160A06A4FF40058404509D1A6
:101FE0002068016821F4005101602068016841F413
:101FF0000051016020680168490603D4016841F07E
:1020000040010160E068B0F5006F606803D030B354
:10201000012E24D041E008B1012E1CD1206B216893
:102020000088C86006E020688168890709D5216BAF
:102030000988C160206B801C2063E08E401EE08612
:1020400009E0FFF7BFFBA0EB0900A84202D3681C20
:1020500001D038E0FDB1E08E0028E4D120E0206B13
:1020600021680078087306E02068816889070AD52E
:10207000216B09780173206B401C2063E08E401EA9
:10208000E0860AE027E0FFF79DFBA0EB0900A842ED
:1020900002D3681C01D016E0ADB1E08E0028E3D178
:1020A000A06A404504D12068016841F48051016074
:1020B0004A462946204600F07BFB08B12020606597
:1020C000A06810B105E0032706E02068C1688068B9
:1020D0000090606D00B1012784F851B084F850A0E1
:1020E000384655E77047704710B5040003D094F8A0
:1020F0003D0010B107E0012010BD002084F83C0035
:10210000204600F00DF8022084F83D00211D2068D3
:1021100000F004FC012084F83D00002010BD000008
:1021200038B5054600681B491B4C884207D1A06999
:1021300040F40060A061A06900F40060009028688D
:10214000B0F1804F0FD1E06940F00100E061E0693B
:10215000002200F00100009005211C20FFF7BEFBCB
:102160001C20FFF7ADFB0D492868884211D1E069BA
:1021700040F00400E061E069002200F004000090FB
:1021800005211E20FFF7AAFBBDE838401E20FFF7FF
:1021900097BB38BD0004004000100240000800401A
:1021A0000168CA6842F00102CA600068816801F0F3
:1021B0000701062903D0016841F0010101600020F8
:1021C0007047704770B50446006801694FF000051C
:1021D000C943890715D4C168C943890711D4E91EC9
:1021E000016101202077206880698007204602D0A5
:1021F000FFF7E7FF04E000F098F8204600F096F8BB
:10220000257720680169C943490717D4C168C943C4
:10221000490713D46FF00401016102202077206880
:10222000806910F4407F204602D0FFF7CAFF04E027
:1022300000F07BF8204600F079F8257720680169E6
:10224000C943090716D4C168C943090712D46FF0FE
:1022500008010161042020772068C06980072046BA
:1022600002D0FFF7AEFF04E000F05FF8204600F078
:102270005DF8257720680169C943C90617D4C1688C
:10228000C943C90613D46FF01001016108202077FB
:102290002068C06910F4407F204602D0FFF791FF0C
:1022A00004E000F042F8204600F040F8257720686E
:1022B0000169C943C90708D1C168C943C90704D125
:1022C000891E0161204600F032F820680169C94387
:1022D000090609D4C168C943090605D46FF0800115
:1022E00001612046FFF7FEFE20680169C9434906E7
:1022F00009D4C168C943490605D46FF040010161A2
:10230000204600F016F820680169C94389060BD4FD
:10231000C168C943890607D46FF0200101612046D6
:10232000BDE87040FFF7DFBE70BD70477047FFF734
:102330004FBA704770B5040004D094F839000025F6
:1023400010B106E0012070BD84F83850204600F03E
:1023500023F8242084F839002068C16821F4005152
:10236000C160204600F010FB2068016921F4904113
:1023700001612068416921F02A0141612068C1683A
:1023800041F40051C160E563202084F8390084F8ED
:102390003A00002070BD0000184810B5816986B071
:1023A00041F004018161816901F0040104918169B6
:1023B00041F004018161816901F0040104918169A6
:1023C00041F48041816180690D4C00F480400490AB
:1023D0004FF4007000900220019001200290032031
:1023E000039069462046FFF7F3F8201500906946F0
:1023F0002046FFF7EDF806B010BD000000100240C7
:10240000000801402DE9F843044690F839001F46C2
:1024100016460D46202850D1A5B19EB194F838003B
:1024200001284AD0012084F838004FF00008C4F891
:102430003C80212084F83900FFF7C4F9A684814646
:10244000E68426E00120BDE8F883E08C401EE084AD
:10245000A0684B46B0F5805F4FF000024FF080015E
:102460002046009703D000F0EBFAE8B90DE000F049
:10247000E7FAC8B928882168C0F3080048602069D5
:1024800008B16D1C05E0AD1C03E0216815F8010BD7
:102490004860E08C0028D8D14B46002240212046DD
:1024A000009700F0CDFA08B10320CCE7202084F893
:1024B000390084F838800020C5E70220C3E7FEE732
:1024C0003EB500212148009101911F4A029102600E
:1024D000921582600173017506244FF46022046135
:1024E000C2614160FEF78CFC012000900190072042
:1024F000029069461548FEF701FC02200090019009
:1025000069461248FEF7FAFB0320009001906946E5
:102510000E48FEF7F3FB0B20009004200190694663
:102520000A48FEF7EBFB0C2000900520019069465D
:102530000648FEF7E3FB0D20CDE900046946034899
:10254000FEF7DCFB3EBD000000240140100200202D
:10255000114808B5816941F004018161816901F088
:1025600004010091816941F010018161816901F0EC
:1025700010010091416941F001014161406900226F
:1025800000F00100009011460B20FFF7A7F9BDE80D
:1025900008400B20FFF794B90010024070B586B0D8
:1025A0000025214801950395816941F01001816161
:1025B000816901F010010491816941F00401816198
:1025C000816901F004010491816941F02001816178
:1025D000816901F020010491816941F00801816164
:1025E0008069124E00F00800049048F684600124CF
:1025F0000090694602943046FEF7EAFF2003CDE9D9
:102600000005694602943046FEF7E2FFA002CDE9DC
:102610000005694602940648FEF7DAFF0548047093
:102620004470847006B070BD00100240001001407C
:10263000000C014048000020FEE770472DE9F04300
:1026400085B0002446480094019402940394816963
:1026500041F004018161816901F004010491816903
:1026600041F008018161816901F0080104918169EB
:1026700041F0100181618069DFF8E89000F01000FE
:102680004FF4E0550490002229464846FFF795F89C
:102690000095022601250396CDE901546946484676
:1026A000FEF796FF304F002241F606013846FFF74D
:1026B00084F841F61600CDE90005CDE902466946E9
:1026C0003846FEF785FFDFF8A48000220E21404641
:1026D000FFF773F80E20CDE90005CDE90246694603
:1026E0004046FEF775FF002210213846FFF765F8D7
:1026F0002C03002221463846FFF75FF80022A11084
:102700004846FFF75AF8002221464846FFF755F899
:10271000002202214046FFF750F8002204214046E3
:10272000FFF74BF8002208214046FFF746F86410F7
:10273000002221463846FFF740F8002202213846A1
:10274000FFF73BF8002204213846FFF736F8002255
:1027500021464846FFF731F805B0BDE8F083000098
:102760000010024000080140000C01400010014030
:102770000E4810B50C4901604FF482714160002190
:102780008160C1604FF400720161C0E9051210223E
:10279000C0E90721416281620A21C162FFF76CFB37
:1027A000002800D0012010BD003001409801002019
:1027B00038B50B46009204460022802100F008F84C
:1027C000002804D0606D40F020006065032038BD13
:1027D0002DE9F0411D4617460E460446DDF81880E7
:1027E00008E0681C06D0FEF7EDFFA0EB0800A84249
:1027F0000BD255B12068806836EA000030D0002046
:10280000B842EED10020BDE8F0812068416821F097
:10281000E00141606068B0F5827F0BD1A068B0F53F
:10282000004F02D0B0F5806F04D12068016821F01C
:1028300040010160A06AB0F5005F09D1206801681D
:1028400021F4005101602068016841F400510160E9
:10285000012084F85100002084F850000320D2E7C2
:102860000120CDE700F0DCBB30B58FB014210AA801
:10287000FDF7BDFC28216846FDF7B9FC02250024C0
:10288000CDE900540120CDE90340102005904FF41C
:102890006010CDE90840079502946846FFF75CF99F
:1028A00000B1FEE70F200A90CDE90B544FF4806091
:1028B000CDE90D0402210AA8FFF742F8002800D054
:1028C000FEE70FB030BD00000D48016841F0010186
:1028D000016041680B4A1140416001680A4A114099
:1028E0000160016821F480210160416821F4FE014A
:1028F00041604FF41F0181600449C00308607047C4
:10290000001002400000FFF8FFFFF6FE08ED00E0B7
:102910000148FFF757BC000018010020F0B502681D
:10292000164B174C174D4FF08047984205D0B842D0
:1029300003D0A04201D0A84203D122F070064A6819
:102940003243984205D0B84203D0A04201D0A842F9
:1029500003D122F44074CA6822434C6922F08002F9
:10296000224302608A68C2620A688262984201D188
:102970000969016301214161F0BD0000002C0140A3
:1029800000040040000800402DE9F04104460068C2
:102990000169E26821F44051114301612169A06895
:1029A0000843616908432168CA6841F20C639A438D
:1029B0000243CA6020684169A26921F44071114351
:1029C00041611E49206864253226884202D1FFF702
:1029D0007DF801E0FFF76AF800EBC00101EB0011A0
:1029E00060686FF018078000B1FBF0F2B2FBF5F2FF
:1029F000B1FBF0F37A4303EB8202B1FBF0F306EB99
:102A00000212B2FBF5F2B3FBF5F302F0F00202EBB7
:102A10000312B1FBF0F3B1FBF0F0B0FBF5F078433B
:102A200003EB800006EB0010B0FBF5F0216800F02E
:102A30000F0010448860BDE8F081000000380140BC
:102A40002DE9F041984617460E460446069D1DE0C6
:102A5000681C1BD02DB1FEF7B5FEA0EB0800A84204
:102A600014D92068C16821F4D071C160206841691F
:102A700021F001014161202084F8390084F83A00F6
:102A8000002084F838000320BDE8F0812068006849
:102A900036EA000004D00020B842D9D00020F3E785
:102AA0000120F9E7FEE70907090E002804DB00F121
:102AB000E02080F80014704700F00F0000F1E020E3
:102AC00080F8141D704702E008C8121F08C1002AD0
:102AD000FAD170477047002001E001C1121F002A9F
:102AE000FBD1704710B54FF480610448FEF760FEDB
:102AF00008B1002010BD012010BD000000100140F1
:102B000010B580210348FEF753FE08B1002010BD28
:102B1000012010BD001001402DE9F041244C012698
:102B200000256670E5818046257000F04BF810B1F5
:102B30000220BDE8F0811F4F002204213846FEF735
:102B40003CFE0022B9143846FEF737FE0023A6707B
:102B50001A4619461848FEF72BFB25726572A572B6
:102B6000B8F1010F1AD000BF00F088F80A20FEF774
:102B70006BFC00F083F80128F6D100BF00F07EF86E
:102B80000128FBD00D49A570E670042008700C48A0
:102B900005700120CDE7A570E670FAE700F06EF849
:102BA0000A20FEF751FC00F069F80028F6D1F2E7A0
:102BB00054000020000C01409C020020190000205D
:102BC0002200002010B54FF400610448FEF7F0FD2C
:102BD00008B1002010BD012010BD00000010014010
:102BE0002DE9F0411B4E04213046FEF7E1FD1A4C61
:102BF000002510B92078012807D004213046FEF7BF
:102C0000D7FD0126012804D005E025700120BDE88C
:102C1000F081207848B1DFF844804FF4805739467E
:102C20004046FEF7C5FD10B104E026700FE0607865
:102C3000012806D039464046FEF7BAFD012803D0E8
:102C400005E065700220E2E7607800B96670002058
:102C5000DDE70000001401404800002000100140A2
:102C600010B54FF400410448FEF7A2FD08B1002062
:102C700010BD012010BD00000010014010B54FF440
:102C800080610448FEF794FD08B1002010BD0120CA
:102C900010BD0000000C014010B5002400212046AA
:102CA00001F02AFB641CE4B2082CF7D30021BDE834
:102CB0001040082001F020BBF8B5314B032A0BD09F
:102CC0001C46042A267D0ED00A256424022A11D02F
:102CD0006AB3012A2BD04BE0987D8DF802001A7858
:102CE0008DF8012042E08DF802608DF801608DF8CA
:102CF00000603DE0642808D2B0FBF5F21A448DF87C
:102D00000260927A8DF801202BE040F2E732904287
:102D10002ED2B0FBF4F29A5C8DF80220B0FBF4F2F4
:102D200004FB1202B2FBF5F21A44927A13E0B0FBF4
:102D3000F4F2642820D204FB12020A2A8DF8026001
:102D400002D28DF8016008E0B0FBF4F204FB12023D
:102D5000B2FBF5F29A5C8DF80120B0FBF4F204FBB3
:102D60001200B0FBF5F205FB1200185C8DF80000B4
:102D7000684600F05FF9F8BD9A5C8DF80220E3E741
:102D80007200002000787047F8B506460D461648D8
:102D90000021009101600121C0E902611746FEF7A0
:102DA00003FC69461048FEF761FB002415E000BFF4
:102DB00005EB840015F82410C278002301EB0261B2
:102DC00082784078120402EB00200A1806EB840196
:102DD0000220FEF7A9FB641CE4B2B4EB970FE7D91D
:102DE000FEF798FB2846F8BDF001002010B500283A
:102DF00021D0114B0022001F196803E0814203D843
:102E00000A4649680029F9D152B11368841A9C42D4
:102E100004D1006818441060104602E0506000E0E1
:102E2000186039B102680B1A934203D10B681A4437
:102E300002604968416010BDF00000200848074961
:102E400001604FF4E131416000218160C1600161A6
:102E5000816108214161FFF76DBA0000003801402F
:102E60005801002070B50446C5B209480121405DF3
:102E700001F042FA012D09D10549C4F30720891C4C
:102E8000085CBDE87040012101F036BA70BD000059
:102E90004C0000201CB5FEF7A3FCFFF7E5FCFFF794
:102EA000CDFF23A001F0C8F9FFF778FBFFF760FC26
:102EB000FDF7EEFDFFF7C2FBFFF74AFBFFF700FB54
:102EC00001F0A8F900901F48BDF800100180FDF73F
:102ED0004BFE01F00BFA002502242B4680221AA19A
:102EE0001D48CDE9004501F0E3FC002380221BA131
:102EF0001E48CDE9004501F0DBFC002380221CA127
:102F00001F48CDE9004501F0D3FC002380221DA11C
:102F10002048CDE9004501F0CBFC002380221EA112
:102F20002348CDE9004501F0C3FC01F031FBFEE789
:102F3000496E697469616C697A6520646576696354
:102F4000650D0A000C0000205461736B5F427574BC
:102F5000746F6E7300000000753A00085461736B63
:102F60002077656C64696E6700000000F93C00081A
:102F70005461736B2074696D657220316D7300004C
:102F8000913B00085461736B20646973706C6179C4
:102F900000000000053600085461736B206665650B
:102FA000646261636B207369676E616C730000001B
:102FB0004D370008F0B50B30154D20F00701002407
:102FC000144A0FE003688B420BD38B4205D95E1A7B
:102FD00043184768C3E9006700E04368136002C014
:102FE00004E0021D10680028ECD12046002802D120
:102FF000286808B10020F0BD064A07481060074A5B
:10300000121A22F00702C0E9002401202860D7E745
:10301000F4000020F0000020A41F0020A0210020C8
:1030200010B501F071FC012803D0BDE8104001F09B
:1030300029BC10BD2DE9F05FDFF87C80DFF87CB0A3
:10304000DFF87CA0814600244FF4804601EB410567
:10305000012231464046FEF7B0FB09EB040001F0C7
:103060008BF94FF40057002239464046FEF7A5FB86
:10307000012239464046FEF7A0FB291901EB0B005F
:1030800001F07AF90022202157465046FEF795FBC1
:10309000012220213846FEF790FB002231464046AF
:1030A000FEF78BFB012001F04DFA641CE4B2022C08
:1030B000CED9BDE8F09F0000000C01406C0000205C
:1030C000001001402DE9F05FDFF8D491DFF8D481E2
:1030D0000127754C002500BFFFF7D0FD012878D1EE
:1030E000FFF700FD002874D1E5700122042140465D
:1030F000FEF763FBA07901280FD16CA001F09CF8CA
:103100000520E071A5710120FDF768FDFFF7B6FD10
:1031100000287BD0E0790028F5D1FFF753FD012886
:1031200006D001F09FFA6073012819D000286DD0F5
:10313000DFF884B161A001F07FF84E4699F80000F5
:10314000FDF7E2FA5A46604BFDF7DEF9FDF7FDFAAE
:103150000346002211465D48FEF72AF865700DE02F
:10316000677153E00120FDF739FDFFF787FD48B196
:103170000120FFF7D1FC6073012847D0FFF77EFDE7
:103180000128EFD052480068FDF7CBFA607251A0D9
:1031900001F052F82561207901280FD03678267386
:1031A000607AFDF79BFA8246A6F10A00FDF78DFAD8
:1031B0005146FDF7B8F86061657018E02571E67A50
:1031C0002673607AFDF78AFA82463046FDF786FA62
:1031D000EEE762E00120FDF701FDFFF74FFD01285A
:1031E0001ED00020FFF798FC607301280ED0607A93
:1031F0000028EFD100224FF480514046FEF7DDFA5F
:1032000000231A4619463148FDF7D2FF3548E770CA
:103210000068FDF786FAA07233A001F00DF813E004
:10322000657287E70120FDF7D9FCFFF727FD01282C
:1032300001D1607918B1FFF721FD28B901E0A5722D
:103240004AE76079012820D0A07A0028EAD12AA094
:1032500000F0F2FFA7710022042146464046FEF727
:10326000ACFA00224FF480612948FEF7A6FA00224A
:1032700002213046FEF7A1FA6571BDE8F05F25A096
:1032800000F0DABF0120FDF7A9FCFFF7F7FC0028EA
:10329000DDD1A07A0028F5D1D9E7BDE8F09F000084
:1032A0001D000020000C0140540000205072656792
:1032B00061732D2D2D2D00000AD7A3702D2D2D2DDE
:1032C00077656C64696E67003D8A22409C0200202D
:1032D0003C0000202D2D2D2D646F776E20736C6FB8
:1032E00070650000340000202D2D2D2D706F73743B
:1032F00020676173000000002D2D2D2D7475726EF6
:10330000206F6666206761732076616C76650000C9
:10331000000801402D2D2D2D656E642070726F63A5
:103320006573730D0A0000002DE9F05FDFF8249249
:10333000DFF824820127894C4FF48B7A002500BFE7
:10334000FFF79CFC01287AD1FFF7CCFB002876D14F
:10335000E570012204214046FEF72FFAA0790128EA
:103360000FD17FA000F068FF0520E071A57101205A
:10337000FDF734FCFFF782FC00281CD0E079002820
:10338000F5D1FFF71FFC012806D001F06BF960733F
:1033900001280FD00028F0D073A000F04DFFC82006
:1033A000FEF752F80022534611467548FDF700FF1C
:1033B00065700AE0677185E00120FDF70FFC0020D1
:1033C000FFF7AAFB607301287CD0FFF757FC0128A8
:1033D000F2D06CA000F030FF4E4699F80000FDF7E7
:1033E00093F96B4A6B4BFDF78FF8FDF7AEF9034687
:1033F000002211466248FDF7DBFE657008E00120FF
:10340000FDF7ECFB0020FFF787FB6073012859D024
:10341000FFF734FC0028F2D05F480068FDF781F91F
:1034200060725EA000F008FF25613678607A1E2E7B
:1034300006D3FDF753F98346A6F11E0005E086E0AA
:10344000FDF74CF98346C6F11E00FDF73EF95946DB
:10345000FCF769FF606165700BE00120FDF7BEFBC2
:103460000120FFF759FB607301282BD0FFF706FC02
:1034700068B1607A0028F0D10022534611464048D6
:10348000FDF796FE49A000F0D7FE65700AE0657270
:103490009FE70120FDF7A2FB0120FFF73DFB6073D2
:1034A00001282ED0FFF7EAFB0128F2D000224FF4CA
:1034B00080514046FEF781F900231A4619463048EC
:1034C000FDF776FE3E480068FDF72BF9A072E77025
:1034D0003CA000F0B1FE11E00120FDF77FFBFFF7FB
:1034E000CDFB012801D1607918B1FFF7C7FB28B9DE
:1034F00001E0A57224E76079012820D0A07A002895
:10350000EAD134A000F098FEA771002204214646BB
:103510004046FEF752F900224FF480613348FEF72F
:103520004CF9002202213046FEF747F96571BDE8EB
:10353000F05F2FA000F080BE0120FDF74FFBFFF7EA
:103540009DFB0028DDD1A07A0028F5D1D9E7BDE8A0
:10355000F09F00001D000020000C014054000020DE
:1035600050726567617300002D2D2D2D696E697491
:1035700069616C697A652063757272656E740000AA
:103580009C0200202D2D2D2D77656C64696E6700DF
:103590000AD7A3703D8A22403C0000202D2D2D2DFE
:1035A000646F776E20736C6F706500002D2D2D2D6C
:1035B0006372617465722063757272656E74000067
:1035C000340000202D2D2D2D706F737420676173D2
:1035D000000000002D2D2D2D7475726E206F666613
:1035E000206761732076616C7665000000080140F9
:1035F0002D2D2D2D656E642070726F636573730DB4
:103600000A00000008B5DFF834A14D4F04264D4CE8
:103610004FF0010800254FF0020900BFFFF73CFB07
:10362000E08A052806D3FFF75DFA18B901210820C2
:1036300000F062FEFFF756FA012803D060790128F6
:1036400011D016E06672A6740121072000F054FE26
:103650006079002864D184F8058001221021504649
:10366000FEF7ABF85CE06571002210215046FEF7D2
:10367000A4F8E079032805D03978012902D002287E
:103680001FD046E0A079012800D1A571387878B123
:1036900003206072A0740021052000F02DFE00219F
:1036A000042000F029FE207D2074A07D607430E0AD
:1036B00084F80980A5740121052000F01DFE012178
:1036C000EEE7A07918B984F80680607B60746672B2
:1036D0000021052000F010FE207A30B1012806D02C
:1036E00002280AD003280AD013E0607B00E0E07BC8
:1036F00060740121A574042009E0606A00E0E06ABA
:10370000FDF70FF8607484F812900121062000F094
:10371000F3FD0D480088ADF800000098FFF7A2FB0C
:10372000627A0121207CFFF7C7FAA27C0021607C2D
:10373000FFF7C2FA012000F005FF6FE7000C01401F
:1037400056000020100000200C000020DFF878A2B6
:103750009E4DDFF87C924FF07E5B06229C499D488F
:10376000FDF738FCBAF80020B9F8001054460A44B6
:10377000AAF80020BAF80220B9F802703A44AAF870
:103780000220BAF80420B9F804603244AAF80420F0
:103790002A88521C92B22A800A2A7DD30846FCF756
:1037A0009DFF8D49FCF735FD8C49FCF78AFD6FF0D4
:1037B0000B01FCF7F6FDFCF7E1FF894A894BFCF7AA
:1037C00015FFFCF7C2FFDFF82082A8F81400384686
:1037D000FCF784FF8149FCF774FD6FF00B01FCF7E7
:1037E000E0FDFCF7CBFF7E4A804BFCF7FFFE7C4AF6
:1037F0007F4BFCF7E2FDFCF7A8FFA8F81600304667
:10380000FCF76CFF7549FCF75CFD6FF00B01FCF7F2
:10381000C8FD0026C8F830002E80268075496680D5
:10382000A680884205DB711E4446FCF7BAFD606342
:1038300001E0C8F834B04F46B9F80600FCF764FF61
:103840006D4A6E4BFCF7D2FE00226D4BFCF7B5FDC6
:10385000FCF77BFFC0B2444688F80D00FA2801D976
:10386000FA206073C1B2207B421E914202DB401CF1
:1038700081421AD963A000F0DFFC607B00F0EAFC13
:10388000E661267200F0A0FF607BFCF73DFF634A13
:10389000634BFCF739FE00E091E0FCF756FF03466E
:1038A000002211465F48FDF783FCDFF87C81607BD6
:1038B000207398F8000010B1012826D07FE03889E5
:1038C000FCF722FF4FF06632584BFCF78FFEFCF7F7
:1038D0003CFFC0B2E073462801D94620E073A17BCB
:1038E000C0B24A1E904202DB491C88420AD950A04D
:1038F00000F0A2FCE07B00F0ADFC0120E66120724C
:1039000000F062FFE07BA0732AE078891421B0FB0D
:10391000F1F00A30FCF7E2FE4A496062884200DDBD
:1039200061625946206AFCF7C6FC616AFCF744FFF5
:1039300007D35946206AFCF76CFC616AFCF732FF3A
:103940000CD241A000F078FC606AFCF7EAFE00F0BF
:1039500081FC0220E661207200F036FF606A20627E
:1039600098F8000001282AD138892821B0FBF1F00D
:10397000FCF7B4FE3949E062884200DDE1625F464F
:103980005946A06AFCF797FCE16AFCF715FF07D3DC
:103990003946A06AFCF73DFCE16AFCF703FF0CD254
:1039A0002FA000F049FCE06AFCF7BBFE00F052FCDF
:1039B0000320E661207200F007FFE06AA062142095
:1039C00000F0C0FDC9E60000900200205000002079
:1039D0008402002010020020000082423333534052
:1039E0007B14AE47E17A943F10000020E17A743FE7
:1039F000E1FA2340CDCCCC3D9A99999999993040E0
:103A00000000244041646A757374207072657365A8
:103A1000742063757272656E743A00000AD7A370E1
:103A20003D8A22409C0200200C00002066664C402B
:103A300041646A7573742061726320666F72636596
:103A40003A0000000000484341646A7573742070B6
:103A50006F7374206761733A000000000000C84271
:103A600041646A75737420646F776E20736C6F7035
:103A7000653A000008B5404F4FF4806BDFF8FCA0BA
:103A8000DFF8FC9001264FF000083E4CFFF7A8F845
:103A90000546012802D0022D23D043E0E07A012818
:103AA00040D0387801283DD100F00CFC99F8000096
:103AB000A0B189F80080012259465046FDF77DFEED
:103AC00000224FF480513048FDF777FE00224FF47A
:103AD00000615046FDF771FEA67218E089F800609B
:103AE000FAE7E07A02281DD0387801281AD199F82F
:103AF0000000B8B100F0E6FB002259465046FDF741
:103B00005CFE99F80110484689B180F80180B9F847
:103B10000000ADF8000002221C48009900F042FCB1
:103B2000FFF7BAF8FFF79CF8012802D003E04670CF
:103B3000EDE7E07818B1FFF793F838B110E0012213
:103B4000D1021148FDF739FEE67009E0E07801285E
:103B500006D1C10200220C48FDF72FFE84F8038035
:103B6000E08A052801D3032000E00220E071E5721D
:103B7000012000F0E7FC89E7570000200008014021
:103B80000C00002010000020000C014000BC0008C8
:103B900008B54A4FDFF828914A4CDFF82CA14B4E6C
:103BA000DFF82C8100254FF0010B607801280FD140
:103BB000E069401CE061B0F5C86F207901D808B118
:103BC00006E008B984F804B004202072E56165704D
:103BD0002078401CC0B22070282859D3257038782E
:103BE00030B1401E3870FEF77DFF012800D13D70D6
:103BF00099F80000E8B3401E89F80000FEF772FF54
:103C0000012801D189F80050324801683248006823
:103C1000FCF7FFFA304908603049497811B10129B1
:103C200009D029E0FCF77DFD2D4980B20978081AFA
:103C3000FCF759FD12E0617B00910A2904D3FCF7DF
:103C400070FD0099081A03E0FCF76BFD0099084429
:103C50002449087008460078FCF756FD224A234B99
:103C6000FCF752FCFCF771FD034600221146204888
:103C700000E001E0FDF79CFA9AF8000040B1401E18
:103C80008AF80000FEF72EFF012801D18AF80050C3
:103C9000307801280ED1B8F80010491C89B2A8F874
:103CA0000010B1F5487F05D31248A8F800503570D0
:103CB00080F800B0052000F045FC76E75B000020AE
:103CC0005D000020100000205E0000205500002054
:103CD0006200002068000020640000200C0000202A
:103CE000600000205F0000200AD7A3703D8A2240B8
:103CF0009C02002054000020344C354F354D0026E6
:103D00004FF48058287828B10128FBD1A07A0128E7
:103D100045D04FE0A07A01280FD18102A67200227F
:103D20002D48FDF74AFD002202213846FDF745FDEA
:103D3000012241463846FDF740FDFEF7D3FE01283B
:103D400004D0E08A052804D2322017E000F022FBDC
:103D5000D8E7FEF7D5FE012801D1A07818B1FEF70B
:103D6000CFFE30B10BE00120A070607BE17B084406
:103D700004E0A078012800D1A670607B2083208B0E
:103D8000FCF7C2FC154A164BFCF7BEFBFCF7DDFC4A
:103D90000346002211461348FDF70AFAB2E7A6725D
:103DA000002202213846FDF708FD00224146384630
:103DB000FDF703FD00F0EEFA687820B10128A1D1EB
:103DC000FFF7B2FA9EE7FFF77DF99BE710000020AE
:103DD000000C01400C000020000801400AD7A3702D
:103DE0003D8A22409C0200202DE9F041184C0F46EC
:103DF000054666692068001D00F0EAFA38B92068B7
:103E000090F82C1001208840A1698143A161681CB1
:103E100007D137B12168BDE8F0410E48091D00F017
:103E200010BB20683544B5424560216805D2A068C2
:103E3000BDE8F041091D00F0ECBA6068091D00F012
:103E4000E8FA206B854200D22563BDE8F0810000CE
:103E50008C0000208C0300202DE9F041054600F085
:103E6000FDFA2E4C2069401C206120682C4F10B1B7
:103E7000E06940B32DE025602069012829D10026A2
:103E800006EB860007EB800000F0B5FA761C072EE3
:103E9000F6D323488C3000F0AEFA2148A03000F071
:103EA000AAFA1F48B43000F0A6FA1D48C83000F046
:103EB000A2FA1B48DC3000F09EFA19488C30606092
:103EC0001430A06005E02068E96AC06A884200D822
:103ED0002560E06A401CE0626864E96A0120A2692A
:103EE00088401043A06101EB810007EB8000291D91
:103EF00000F0A7FA00F0D2FAE06900280CD02068A0
:103F0000E96AC06A884207D206494FF080500860CB
:103F1000BFF34F8FBFF36F8FBDE8F0818C0000209F
:103F2000B002002004ED00E010B50446006B00F084
:103F3000C9FA2046BDE8104000F0C4BA10484FF45A
:103F4000E051420706D0C01D0D4920F00700411A7C
:103F5000C1F5E0510B4A00230144C2E900030839CE
:103F6000103A21F0070111604B600B600B1AC0E999
:103F7000001393604FF000405360D0607047000022
:103F8000A0030020E4000020144E154CA6F1C80741
:103F90004FF08058DFF84C9012E000BF00F05EFA5E
:103FA000F068C568281D00F013FA2069401E2061E2
:103FB000E068401EE06000F071FA2846FFF7B4FFA9
:103FC000E0680028EAD138680128F9D9C9F80080EA
:103FD000BFF34F8FBFF36F8FF2E70000780300202D
:103FE0008C00002004ED00E02DE9F0470E46DDE9ED
:103FF00009841746824691009946089DA522206BA8
:10400000FCF7EEF86FF00301206B01EB8701084429
:1040100020F00707780707D0502080F31188BFF3FE
:104020004F8FBFF36F8FFEE72218315C82F8341098
:10403000315C11B1401C1028F6D3002684F843608F
:10404000072D00D30625E562C4E91356201D00F0B4
:10405000DDF904F1180000F0D9F92461C5F1070079
:104060006462A061666584F858604A4651463846E5
:1040700000F0BEF82060B8F1000F01D0C8F8004091
:10408000BDE8F08730B5114900E011460A68824268
:10409000FBD34B685C18844203D1406818444860E5
:1040A000084643681C18944209D1084C103C246807
:1040B000A24209D052681A4442600A68126802603B
:1040C000814200D0086030BD0460F9E7E4000020C0
:1040D00006484168096829B14168C968C9684968E2
:1040E000016370474FF0FF31FAE700008C000020B9
:1040F00008484068401C4FF0500080F3118804D0FD
:10410000BFF34F8FBFF36F8FFEE7BFF34F8FBFF348
:104110006F8FFEE7C80000202DE9F041054600271B
:1041200000F06AFA314E306808B9FFF707FFF0680F
:1041300005424BD1C5B3083568070ED005F007001E
:10414000C0F108000544680707D0502080F31188AB
:10415000BFF34F8FBFF36F8FFEE72DB370688542BB
:1041600034D82248103001460C6801E020460C4645
:104170006168A94202D221680029F7D131688C42D6
:1041800024D007682168016060680837411B102946
:104190000FD96019420708D0502080F31188BFF36F
:1041A0004F8FBFF36F8FFEE710E041606560FFF750
:1041B00069FF61687068401A7060B268904200D20E
:1041C000B060F06801430020C4E9000100F00EFC7B
:1041D000780707D0502080F31188BFF34F8FBFF3CB
:1041E0006F8FFEE73846BDE8F0810000D400002064
:1041F00010B5031F4FF080741C601B1F21F00101DC
:104200001960191F024B0B60143940380A6010BD49
:10421000F140000808B50748FEF7B4FD8DF800002E
:104220000448401CFEF7AEFD8DF80100BDF800000B
:1042300008BD000000BC000810B50446FBF7E2FF13
:10424000214682B2BDE810400A230148FEF7DAB8E1
:10425000580100204FF47A71B0FBF1F208B530320A
:104260008DF80020B0FBF1F201FB12006421B0FBDD
:10427000F1F230328DF80120B0FBF1F201FB1200B7
:104280000A21B0FBF1F230328DF80220B0FBF1F2DE
:1042900001FB120030308DF8030006A0FFF7CCFFC1
:1042A0000A23042269460548FEF7ACF804A0FFF78C
:1042B000C3FF08BD4E756D6265723A00580100205B
:1042C0000D0A000010B5084C012210212046FDF710
:1042D00074FA0A20FDF7B8F820460022BDE8104025
:1042E0001021FDF76ABA0000000C014000210148CE
:1042F000FCF76BBF9C02002070B5144B05460122F1
:10430000AA4018780C4601291AD0904318701878E2
:1043100000F020F80E4E002240213046FDF74DFA05
:10432000012240213046FDF748FA082D0DD1012C1D
:1043300009D000223046BDE870400121FDF73DBAAA
:1043400002431A70E3E70122F4E770BD4B0000203E
:104350000010014008B5010A8DF800108DF8010029
:104360000123022269460348FDF7F8FD002800D02A
:10437000012008BD9801002010B5012301461A460E
:104380000348FDF7EBFD002800D0012010BD000020
:104390009801002000231A4619460148FCF708BF7F
:1043A0009C0200202DE9F04107460E4615461046B6
:1043B000FEF700FE04460670300A60702A46214669
:1043C0003846FEF7E1FC2046BDE8F041FEF70EBDA1
:1043D000D0E9013201699A60D0E901235A604A6844
:1043E000824201D182684A60002202610868401E50
:1043F00008600868704700F108014FF0FF32C0E91B
:104400000112C1600161002101607047002101615A
:10441000704730B50B685A1C02D000F1080202E068
:10442000026904E02246546825689D42FAD953681F
:104430004B6099608A60516008610168491C0160A5
:1044400030BD42684A6093688B60936859609160A0
:1044500008610168491C016070470000502080F32A
:104460001188BFF34F8FBFF36F8F0A494868401C14
:10447000486001280CD10848006810F0FF0F07D0F1
:10448000502080F31188BFF34F8FBFF36F8FFEE78B
:1044900070470000C800002004ED00E008494868AB
:1044A00028B1401E486001D180F311887047502028
:1044B00080F31188BFF34F8FBFF36F8FFEE70000CB
:1044C000C800002070B5002827D0144DA0F10804C2
:1044D0006168E868014207D1502080F31188BFF37A
:1044E0004F8FBFF36F8FFEE722683AB1502080F301
:1044F0001188BFF34F8FBFF36F8FFEE78143616079
:1045000000F07AF860686968084468602046FFF740
:10451000B9FDBDE8704000F069BA70BDD40000205C
:104520004FF0E02000210161816105494FF4FA62FA
:104530000968B1FBF2F1491E416107210161704731
:10454000EC00002010B5020014D00F48806B38B189
:10455000502080F31188BFF34F8FBFF36F8FFEE7BA
:1045600000F04AF800211046FFF73EFC00F03EFA4A
:10457000002807D105494FF080500860BFF34F8FE6
:10458000BFF36F8F10BD00008C00002004ED00E031
:104590001CB515480024CDE900402346802213A114
:1045A000144800F085F9012809D0401C1AD1502088
:1045B00080F31188BFF34F8FBFF36F8FFEE750205A
:1045C00080F31188BFF34F8FBFF36F8F06484FF012
:1045D000FF31343801630121C1614461BDE81C40F1
:1045E00000F0FCB81CBD0000C000002049444C4550
:1045F00000000000893F00080248816B491C81636C
:10460000704700008C0000201448816B11B101211B
:1046100041627047002141628169B1FA81F1C1F1C3
:104620001F0101EB81020E4951F822306BB101EB01
:10463000820101F108034A6852684A609A4201D136
:1046400052684A60D16801607047502080F3118839
:10465000BFF34F8FBFF36F8FFEE700008C00002089
:10466000B00200202DE9F04745A0FFF7E5FD00224C
:1046700040F2CF1311464848FCF79AFDDFF81C9131
:104680004FF48068012241464846FDF796F8444FB2
:104690004FF4805A012251463846FDF78EF8012228
:1046A00002213846FDF789F83E4C01260025667048
:1046B000E58125703BE02078012801D098BB33E0EC
:1046C0002570002204213846FDF777F800220221E8
:1046D0003846FDF772F8002251463846FDF76DF86E
:1046E000002241464846FDF768F80023A6701A46A6
:1046F00019462948FCF75CFDFEF7C0FA0A20FCF7D2
:10470000A3FEFEF7BBFA0028F6D12749A570E67094
:1047100004200870254805704FF47A70FCF794FE69
:104720000120BDE8F08702E0FEF7A8FA90B1FEF79D
:1047300049FA0028BFD0002241464846FDF73DF81F
:10474000002202213846FDF738F81E20FCF77CFED7
:104750000220E6E7E670002202213846FDF72DF838
:10476000002251463846FDF728F8002241464846C7
:10477000FDF723F80EA0FFF75FFD0020D1E7000052
:104780002D2D2D2D686F74207374617274206375E4
:104790007272656E740000009C02002000080140E7
:1047A000000C0140540000201900002022000020CD
:1047B0002D2D2D2D72656C65617365642074726991
:1047C000676765720000000003480221C171012182
:1047D00041700021C1617047100000201CB52649BE
:1047E00008780190FF20087008788DF800009DF887
:1047F00000009DF8002000F0F000904207D050200B
:1048000080F31188BFF34F8FBFF36F8FFEE79DF8E2
:1048100000001A4B00F0500018700720986005E067
:104820009DF8002052008DF80020401E9DF80020C9
:104830001206F5D49860032807D0502080F3118821
:10484000BFF34F8FBFF36F8FFEE74FF44070986058
:10485000019808700A48016841F47001016001681C
:1048600041F070410160FFF75BFE00205860FBF7EC
:104870005BFC00201CBD000000E400E0C80000203C
:1048800020ED00E010B5502080F31188BFF34F8F6A
:10489000BFF36F8F00F046F818B104494FF0805015
:1048A0000860002080F3118810BD000004ED00E0D6
:1048B0002DE9FF5F8346DDE90E87994616468A4655
:1048C0009000FFF729FC05001AD05C20FFF724FCBC
:1048D000040012D025630021CDE90241CDE9008713
:1048E0004B46324651465846FFF77EFB2046FFF7BF
:1048F000B3FA012004B0BDE8F09F2846FFF7E2FDBF
:104900004FF0FF30F6E700000548C16919B1806B30
:1049100018B1002070470120704702207047000046
:104920008C0000202DE9F0412E4C0027A06B40B1F7
:10493000206A401C2062606A00B101273846BDE849
:10494000F0816669761C666113D16068006838B1D1
:10495000502080F31188BFF34F8FBFF36F8FFEE7B6
:104960006068A1686160A060A06A401CA062FFF757
:10497000AFFB206BDFF87080864209D36068006867
:1049800080B16068C068C568686886420DD22063DF
:104990002068C06A00EB800158F821000128CAD9BC
:1049A0000127C8E74FF0FF30F1E7281DFFF710FDA2
:1049B000A86A18B105F11800FFF70AFDE86A01219D
:1049C000A26981401143A16100EB800108EB8100E5
:1049D000291DFFF736FDE86A2168C96A8842CDD3F0
:1049E0000127CBE78C000020B00200202DE9F04722
:1049F0002C4D00242746A86B38B1FFF72FFDA86B7C
:104A0000401EA863A86B40B146E0502080F3118897
:104A1000BFF34F8FBFF36F8FFEE72969224E01204E
:104A2000D1B3A6F1B40980463068E8B1F068C46833
:104A300004F11800FFF7CCFC201DFFF7C9FCE06A69
:104A4000AA6908FA00F11143A96100EB800109EBA2
:104A50008100211DFFF7F5FCE06A2968C96A8842D8
:104A6000E2D3C5F82480DFE70CB1FFF731FB2C6AF5
:104A700044B14646FFF756FF00B16E62641EF9D19D
:104A800000202862686A38B10849012738070860A1
:104A9000BFF34F8FBFF36F8FFFF700FD3846BDE8C0
:104AA000F08700008C0000206403002004ED00E08B
:104AB00000000000000000000102030406070809CE
:104AC0000000000001020304E84A00080000002082
:104AD000F8000000C62A0008E04B0008F80000209B
:104AE000A8240000D62A00080100000010000000E1
:104AF00000000000000000000000000000000002B4
:104B0000040101000000000000000000000000009F
:104B10000000000000000000000000000000000095
:104B20000000000000000000000000000000000085
:104B3000000000000001020300000000000000016E
:104B40000000010000000000000000000000000064
:104B5000000000002010080402013F065B4F666D54
:104B60007D077F6FBF86DBCFE6EDFD87FFEF00405F
:104B700073000000000000000000000000000000C2
:104B80000000000000000000000000000000000025
:104B90000000000000000000000000000000000015
:104BA0000000000000000000000000000000000005
:104BB00000000000AAAAAAAA00000000000000004D
:104BC00000000000000000000000000000000000E5
:104BD000000000000024F4000000000000000000BD
:04000005080000ED02
:00000001FF
